{
  "address": "0x8fe2511d9E7dD78Fdc64A1E34545b8a5ceD74cA8",
  "abi": [
    {
      "inputs": [
        {
          "internalType": "address",
          "name": "_endpoint",
          "type": "address"
        },
        {
          "internalType": "address",
          "name": "_delegate",
          "type": "address"
        }
      ],
      "stateMutability": "nonpayable",
      "type": "constructor"
    },
    {
      "inputs": [],
      "name": "InvalidDelegate",
      "type": "error"
    },
    {
      "inputs": [],
      "name": "InvalidEndpointCall",
      "type": "error"
    },
    {
      "inputs": [
        {
          "internalType": "bytes",
          "name": "options",
          "type": "bytes"
        }
      ],
      "name": "InvalidOptions",
      "type": "error"
    },
    {
      "inputs": [],
      "name": "LzTokenUnavailable",
      "type": "error"
    },
    {
      "inputs": [
        {
          "internalType": "uint32",
          "name": "eid",
          "type": "uint32"
        }
      ],
      "name": "NoPeer",
      "type": "error"
    },
    {
      "inputs": [
        {
          "internalType": "uint256",
          "name": "msgValue",
          "type": "uint256"
        }
      ],
      "name": "NotEnoughNative",
      "type": "error"
    },
    {
      "inputs": [
        {
          "internalType": "address",
          "name": "addr",
          "type": "address"
        }
      ],
      "name": "OnlyEndpoint",
      "type": "error"
    },
    {
      "inputs": [
        {
          "internalType": "uint32",
          "name": "eid",
          "type": "uint32"
        },
        {
          "internalType": "bytes32",
          "name": "sender",
          "type": "bytes32"
        }
      ],
      "name": "OnlyPeer",
      "type": "error"
    },
    {
      "inputs": [
        {
          "internalType": "address",
          "name": "owner",
          "type": "address"
        }
      ],
      "name": "OwnableInvalidOwner",
      "type": "error"
    },
    {
      "inputs": [
        {
          "internalType": "address",
          "name": "account",
          "type": "address"
        }
      ],
      "name": "OwnableUnauthorizedAccount",
      "type": "error"
    },
    {
      "inputs": [
        {
          "internalType": "address",
          "name": "token",
          "type": "address"
        }
      ],
      "name": "SafeERC20FailedOperation",
      "type": "error"
    },
    {
      "anonymous": false,
      "inputs": [
        {
          "components": [
            {
              "internalType": "uint32",
              "name": "eid",
              "type": "uint32"
            },
            {
              "internalType": "uint16",
              "name": "msgType",
              "type": "uint16"
            },
            {
              "internalType": "bytes",
              "name": "options",
              "type": "bytes"
            }
          ],
          "indexed": false,
          "internalType": "struct EnforcedOptionParam[]",
          "name": "_enforcedOptions",
          "type": "tuple[]"
        }
      ],
      "name": "EnforcedOptionSet",
      "type": "event"
    },
    {
      "anonymous": false,
      "inputs": [
        {
          "indexed": true,
          "internalType": "address",
          "name": "previousOwner",
          "type": "address"
        },
        {
          "indexed": true,
          "internalType": "address",
          "name": "newOwner",
          "type": "address"
        }
      ],
      "name": "OwnershipTransferred",
      "type": "event"
    },
    {
      "anonymous": false,
      "inputs": [
        {
          "indexed": false,
          "internalType": "uint32",
          "name": "eid",
          "type": "uint32"
        },
        {
          "indexed": false,
          "internalType": "bytes32",
          "name": "peer",
          "type": "bytes32"
        }
      ],
      "name": "PeerSet",
      "type": "event"
    },
    {
      "anonymous": false,
      "inputs": [
        {
          "indexed": false,
          "internalType": "address",
          "name": "user",
          "type": "address"
        },
        {
          "indexed": false,
          "internalType": "uint256",
          "name": "timestamp",
          "type": "uint256"
        }
      ],
      "name": "UserVerified",
      "type": "event"
    },
    {
      "anonymous": false,
      "inputs": [
        {
          "indexed": false,
          "internalType": "address",
          "name": "user",
          "type": "address"
        },
        {
          "indexed": false,
          "internalType": "uint32",
          "name": "dstEid",
          "type": "uint32"
        },
        {
          "indexed": false,
          "internalType": "bytes32",
          "name": "guid",
          "type": "bytes32"
        }
      ],
      "name": "VerificationPropagated",
      "type": "event"
    },
    {
      "inputs": [],
      "name": "VERIFICATION_MESSAGE",
      "outputs": [
        {
          "internalType": "uint16",
          "name": "",
          "type": "uint16"
        }
      ],
      "stateMutability": "view",
      "type": "function"
    },
    {
      "inputs": [
        {
          "components": [
            {
              "internalType": "uint32",
              "name": "srcEid",
              "type": "uint32"
            },
            {
              "internalType": "bytes32",
              "name": "sender",
              "type": "bytes32"
            },
            {
              "internalType": "uint64",
              "name": "nonce",
              "type": "uint64"
            }
          ],
          "internalType": "struct Origin",
          "name": "origin",
          "type": "tuple"
        }
      ],
      "name": "allowInitializePath",
      "outputs": [
        {
          "internalType": "bool",
          "name": "",
          "type": "bool"
        }
      ],
      "stateMutability": "view",
      "type": "function"
    },
    {
      "inputs": [
        {
          "internalType": "uint32",
          "name": "_eid",
          "type": "uint32"
        },
        {
          "internalType": "uint16",
          "name": "_msgType",
          "type": "uint16"
        },
        {
          "internalType": "bytes",
          "name": "_extraOptions",
          "type": "bytes"
        }
      ],
      "name": "combineOptions",
      "outputs": [
        {
          "internalType": "bytes",
          "name": "",
          "type": "bytes"
        }
      ],
      "stateMutability": "view",
      "type": "function"
    },
    {
      "inputs": [],
      "name": "endpoint",
      "outputs": [
        {
          "internalType": "contract ILayerZeroEndpointV2",
          "name": "",
          "type": "address"
        }
      ],
      "stateMutability": "view",
      "type": "function"
    },
    {
      "inputs": [
        {
          "internalType": "uint32",
          "name": "eid",
          "type": "uint32"
        },
        {
          "internalType": "uint16",
          "name": "msgType",
          "type": "uint16"
        }
      ],
      "name": "enforcedOptions",
      "outputs": [
        {
          "internalType": "bytes",
          "name": "enforcedOption",
          "type": "bytes"
        }
      ],
      "stateMutability": "view",
      "type": "function"
    },
    {
      "inputs": [
        {
          "components": [
            {
              "internalType": "uint32",
              "name": "srcEid",
              "type": "uint32"
            },
            {
              "internalType": "bytes32",
              "name": "sender",
              "type": "bytes32"
            },
            {
              "internalType": "uint64",
              "name": "nonce",
              "type": "uint64"
            }
          ],
          "internalType": "struct Origin",
          "name": "",
          "type": "tuple"
        },
        {
          "internalType": "bytes",
          "name": "",
          "type": "bytes"
        },
        {
          "internalType": "address",
          "name": "_sender",
          "type": "address"
        }
      ],
      "name": "isComposeMsgSender",
      "outputs": [
        {
          "internalType": "bool",
          "name": "",
          "type": "bool"
        }
      ],
      "stateMutability": "view",
      "type": "function"
    },
    {
      "inputs": [
        {
          "internalType": "address",
          "name": "_user",
          "type": "address"
        }
      ],
      "name": "isVerified",
      "outputs": [
        {
          "internalType": "bool",
          "name": "",
          "type": "bool"
        }
      ],
      "stateMutability": "view",
      "type": "function"
    },
    {
      "inputs": [
        {
          "components": [
            {
              "internalType": "uint32",
              "name": "srcEid",
              "type": "uint32"
            },
            {
              "internalType": "bytes32",
              "name": "sender",
              "type": "bytes32"
            },
            {
              "internalType": "uint64",
              "name": "nonce",
              "type": "uint64"
            }
          ],
          "internalType": "struct Origin",
          "name": "_origin",
          "type": "tuple"
        },
        {
          "internalType": "bytes32",
          "name": "_guid",
          "type": "bytes32"
        },
        {
          "internalType": "bytes",
          "name": "_message",
          "type": "bytes"
        },
        {
          "internalType": "address",
          "name": "_executor",
          "type": "address"
        },
        {
          "internalType": "bytes",
          "name": "_extraData",
          "type": "bytes"
        }
      ],
      "name": "lzReceive",
      "outputs": [],
      "stateMutability": "payable",
      "type": "function"
    },
    {
      "inputs": [
        {
          "internalType": "uint32",
          "name": "",
          "type": "uint32"
        },
        {
          "internalType": "bytes32",
          "name": "",
          "type": "bytes32"
        }
      ],
      "name": "nextNonce",
      "outputs": [
        {
          "internalType": "uint64",
          "name": "nonce",
          "type": "uint64"
        }
      ],
      "stateMutability": "view",
      "type": "function"
    },
    {
      "inputs": [],
      "name": "oAppVersion",
      "outputs": [
        {
          "internalType": "uint64",
          "name": "senderVersion",
          "type": "uint64"
        },
        {
          "internalType": "uint64",
          "name": "receiverVersion",
          "type": "uint64"
        }
      ],
      "stateMutability": "pure",
      "type": "function"
    },
    {
      "inputs": [],
      "name": "owner",
      "outputs": [
        {
          "internalType": "address",
          "name": "",
          "type": "address"
        }
      ],
      "stateMutability": "view",
      "type": "function"
    },
    {
      "inputs": [
        {
          "internalType": "uint32",
          "name": "eid",
          "type": "uint32"
        }
      ],
      "name": "peers",
      "outputs": [
        {
          "internalType": "bytes32",
          "name": "peer",
          "type": "bytes32"
        }
      ],
      "stateMutability": "view",
      "type": "function"
    },
    {
      "inputs": [
        {
          "internalType": "address",
          "name": "_user",
          "type": "address"
        },
        {
          "internalType": "uint32",
          "name": "_dstEid",
          "type": "uint32"
        },
        {
          "internalType": "bytes",
          "name": "_options",
          "type": "bytes"
        }
      ],
      "name": "propagateVerification",
      "outputs": [],
      "stateMutability": "payable",
      "type": "function"
    },
    {
      "inputs": [
        {
          "internalType": "uint32",
          "name": "_dstEid",
          "type": "uint32"
        },
        {
          "internalType": "bytes",
          "name": "_options",
          "type": "bytes"
        }
      ],
      "name": "quotePropagateFee",
      "outputs": [
        {
          "components": [
            {
              "internalType": "uint256",
              "name": "nativeFee",
              "type": "uint256"
            },
            {
              "internalType": "uint256",
              "name": "lzTokenFee",
              "type": "uint256"
            }
          ],
          "internalType": "struct MessagingFee",
          "name": "fee",
          "type": "tuple"
        }
      ],
      "stateMutability": "view",
      "type": "function"
    },
    {
      "inputs": [],
      "name": "renounceOwnership",
      "outputs": [],
      "stateMutability": "nonpayable",
      "type": "function"
    },
    {
      "inputs": [
        {
          "internalType": "address",
          "name": "_delegate",
          "type": "address"
        }
      ],
      "name": "setDelegate",
      "outputs": [],
      "stateMutability": "nonpayable",
      "type": "function"
    },
    {
      "inputs": [
        {
          "components": [
            {
              "internalType": "uint32",
              "name": "eid",
              "type": "uint32"
            },
            {
              "internalType": "uint16",
              "name": "msgType",
              "type": "uint16"
            },
            {
              "internalType": "bytes",
              "name": "options",
              "type": "bytes"
            }
          ],
          "internalType": "struct EnforcedOptionParam[]",
          "name": "_enforcedOptions",
          "type": "tuple[]"
        }
      ],
      "name": "setEnforcedOptions",
      "outputs": [],
      "stateMutability": "nonpayable",
      "type": "function"
    },
    {
      "inputs": [
        {
          "internalType": "uint32",
          "name": "_eid",
          "type": "uint32"
        },
        {
          "internalType": "bytes32",
          "name": "_peer",
          "type": "bytes32"
        }
      ],
      "name": "setPeer",
      "outputs": [],
      "stateMutability": "nonpayable",
      "type": "function"
    },
    {
      "inputs": [
        {
          "internalType": "address",
          "name": "newOwner",
          "type": "address"
        }
      ],
      "name": "transferOwnership",
      "outputs": [],
      "stateMutability": "nonpayable",
      "type": "function"
    },
    {
      "inputs": [
        {
          "internalType": "address",
          "name": "",
          "type": "address"
        }
      ],
      "name": "verifiedUsers",
      "outputs": [
        {
          "internalType": "bool",
          "name": "",
          "type": "bool"
        }
      ],
      "stateMutability": "view",
      "type": "function"
    },
    {
      "inputs": [
        {
          "internalType": "address",
          "name": "_user",
          "type": "address"
        }
      ],
      "name": "verifyUser",
      "outputs": [],
      "stateMutability": "nonpayable",
      "type": "function"
    }
  ],
  "transactionHash": "0x7a2781023cc732a0ca53c35695ba5f29be472e4226b50e50c8a9323aa97f6b63",
  "args": [
    "0x6EDCE65403992e310A62460808c4b910D972f10f",
    "0x77f0E8A8C6ca05738E3605C65C53323601eEE0e3"
  ],
  "numDeployments": 1,
  "solcInputHash": "1fb3fa538c5bd615d29ccc649dccdda8",
  "bytecode": "0x60a06040523480156200001157600080fd5b5060405162001d1938038062001d1983398101604081905262000034916200017c565b81818181806001600160a01b0381166200006857604051631e4fbdf760e01b81526000600482015260240160405180910390fd5b62000073816200010f565b506001600160a01b038083166080528116620000a257604051632d618d8160e21b815260040160405180910390fd5b60805160405163ca5eb5e160e01b81526001600160a01b0383811660048301529091169063ca5eb5e190602401600060405180830381600087803b158015620000ea57600080fd5b505af1158015620000ff573d6000803e3d6000fd5b50505050505050505050620001b4565b600080546001600160a01b038381166001600160a01b0319831681178455604051919092169283917f8be0079c531659141344cd1fd0a4f28419497f9722a3daafe3b4186f6b6457e09190a35050565b80516001600160a01b03811681146200017757600080fd5b919050565b600080604083850312156200019057600080fd5b6200019b836200015f565b9150620001ab602084016200015f565b90509250929050565b608051611b1f620001fa600039600081816102380152818161047e015281816109f001528181610c3101528181610d1f01528181610f9901526110500152611b1f6000f3fe60806040526004361061012a5760003560e01c806382413eac116100ab578063bb0b6a531161006f578063bb0b6a5314610391578063bc70b354146103cc578063ca5eb5e1146103ec578063e35fe3661461040c578063f2fde38b1461043c578063ff7bd03d1461045c57600080fd5b806382413eac146102c25780638da5cb5b146102f2578063989b992d14610310578063b9209e3314610338578063b98bd0701461037157600080fd5b80634e588dfc116100f25780634e588dfc146101be5780635535d461146101f95780635e280f1114610226578063715018a6146102725780637d25a05e1461028757600080fd5b806313137d651461012f57806317442b70146101445780633400288b1461016b57806340e47ec51461018b5780634d8131201461019e575b600080fd5b61014261013d3660046111fa565b61047c565b005b34801561015057600080fd5b50604080516001815260026020820152015b60405180910390f35b34801561017757600080fd5b506101426101863660046112b2565b61053c565b6101426101993660046112dc565b610552565b3480156101aa57600080fd5b506101426101b936600461133e565b610675565b3480156101ca57600080fd5b506101de6101d9366004611362565b6106dd565b60408051825181526020928301519281019290925201610162565b34801561020557600080fd5b506102196102143660046113c6565b610739565b6040516101629190611449565b34801561023257600080fd5b5061025a7f000000000000000000000000000000000000000000000000000000000000000081565b6040516001600160a01b039091168152602001610162565b34801561027e57600080fd5b506101426107de565b34801561029357600080fd5b506102aa6102a23660046112b2565b600092915050565b6040516001600160401b039091168152602001610162565b3480156102ce57600080fd5b506102e26102dd36600461145c565b6107f2565b6040519015158152602001610162565b3480156102fe57600080fd5b506000546001600160a01b031661025a565b34801561031c57600080fd5b50610325600181565b60405161ffff9091168152602001610162565b34801561034457600080fd5b506102e261035336600461133e565b6001600160a01b031660009081526003602052604090205460ff1690565b34801561037d57600080fd5b5061014261038c3660046114c2565b610807565b34801561039d57600080fd5b506103be6103ac366004611536565b60016020526000908152604090205481565b604051908152602001610162565b3480156103d857600080fd5b506102196103e7366004611551565b610821565b3480156103f857600080fd5b5061014261040736600461133e565b6109c9565b34801561041857600080fd5b506102e261042736600461133e565b60036020526000908152604090205460ff1681565b34801561044857600080fd5b5061014261045736600461133e565b610a4f565b34801561046857600080fd5b506102e261047736600461157e565b610a8d565b7f00000000000000000000000000000000000000000000000000000000000000006001600160a01b031633146104cc576040516391ac5e4f60e01b81523360048201526024015b60405180910390fd5b602087018035906104e6906104e1908a611536565b610ac3565b14610524576104f86020880188611536565b60405163309afaf360e21b815263ffffffff9091166004820152602088013560248201526044016104c3565b61053387878787878787610b05565b50505050505050565b610544610b7c565b61054e8282610ba9565b5050565b6001600160a01b03841660009081526003602052604090205460ff166105ba5760405162461bcd60e51b815260206004820152601960248201527f55736572206e6f74207665726966696564206c6f63616c6c790000000000000060448201526064016104c3565b604080516001600160a01b038616602082015260009101604051602081830303815290604052905060006105f18560018686610821565b905060006106178684846040518060400160405280348152602001600081525033610bfe565b8051604080516001600160a01b038b16815263ffffffff8a166020820152908101919091529091507f7300696b41bafbc1011cd9afdf8b4ca11dd3ce8a164fde01b082b1e0040e3b8b9060600160405180910390a150505050505050565b61067d610b7c565b6001600160a01b038116600081815260036020908152604091829020805460ff19166001179055815192835242908301527f22b3126528cda4618d13b6945f5e96fe53a5125f386aa591ee89134e2681c62191015b60405180910390a150565b6040805180820190915260008082526020820152604080516000602082018190529101604051602081830303815290604052905060006107208660018787610821565b905061072f8683836000610d09565b9695505050505050565b60026020908152600092835260408084209091529082529020805461075d9061159a565b80601f01602080910402602001604051908101604052809291908181526020018280546107899061159a565b80156107d65780601f106107ab576101008083540402835291602001916107d6565b820191906000526020600020905b8154815290600101906020018083116107b957829003601f168201915b505050505081565b6107e6610b7c565b6107f06000610dea565b565b6001600160a01b03811630145b949350505050565b61080f610b7c565b61054e61081c828461163c565b610e3a565b63ffffffff8416600090815260026020908152604080832061ffff871684529091528120805460609291906108559061159a565b80601f01602080910402602001604051908101604052809291908181526020018280546108819061159a565b80156108ce5780601f106108a3576101008083540402835291602001916108ce565b820191906000526020600020905b8154815290600101906020018083116108b157829003601f168201915b50505050509050805160000361091e5783838080601f0160208091040260200160405190810160405280939291908181526020018383808284376000920191909152509294506107ff9350505050565b600083900361092e5790506107ff565b600283106109ac5761097584848080601f016020809104026020016040519081016040528093929190818152602001838380828437600092019190915250610f4192505050565b806109838460028188611761565b6040516020016109959392919061178b565b6040516020818303038152906040529150506107ff565b8383604051639a6d49cd60e01b81526004016104c39291906117b3565b6109d1610b7c565b60405163ca5eb5e160e01b81526001600160a01b0382811660048301527f0000000000000000000000000000000000000000000000000000000000000000169063ca5eb5e190602401600060405180830381600087803b158015610a3457600080fd5b505af1158015610a48573d6000803e3d6000fd5b5050505050565b610a57610b7c565b6001600160a01b038116610a8157604051631e4fbdf760e01b8152600060048201526024016104c3565b610a8a81610dea565b50565b6000602082018035906001908390610aa59086611536565b63ffffffff1681526020810191909152604001600020541492915050565b63ffffffff811660009081526001602052604081205480610aff5760405163f6ff4fb760e01b815263ffffffff841660048201526024016104c3565b92915050565b6000610b138587018761133e565b6001600160a01b038116600081815260036020908152604091829020805460ff19166001179055815192835242908301529192507f22b3126528cda4618d13b6945f5e96fe53a5125f386aa591ee89134e2681c621910160405180910390a15050505050505050565b6000546001600160a01b031633146107f05760405163118cdaa760e01b81523360048201526024016104c3565b63ffffffff8216600081815260016020908152604091829020849055815192835282018390527f238399d427b947898edb290f5ff0f9109849b1c3ba196a42e35f00c50a54b98b910160405180910390a15050565b610c0661113e565b6000610c158460000151610f6d565b602085015190915015610c2f57610c2f8460200151610f95565b7f00000000000000000000000000000000000000000000000000000000000000006001600160a01b0316632637a450826040518060a001604052808b63ffffffff168152602001610c7f8c610ac3565b81526020018a815260200189815260200160008960200151111515815250866040518463ffffffff1660e01b8152600401610cbb9291906117e2565b60806040518083038185885af1158015610cd9573d6000803e3d6000fd5b50505050506040513d601f19601f82011682018060405250810190610cfe91906118a9565b979650505050505050565b60408051808201909152600080825260208201527f00000000000000000000000000000000000000000000000000000000000000006001600160a01b031663ddc28c586040518060a001604052808863ffffffff168152602001610d6c89610ac3565b8152602001878152602001868152602001851515815250306040518363ffffffff1660e01b8152600401610da19291906117e2565b6040805180830381865afa158015610dbd573d6000803e3d6000fd5b505050506040513d601f19601f82011682018060405250810190610de191906118ff565b95945050505050565b600080546001600160a01b038381166001600160a01b0319831681178455604051919092169283917f8be0079c531659141344cd1fd0a4f28419497f9722a3daafe3b4186f6b6457e09190a35050565b60005b8151811015610f1157610e6c828281518110610e5b57610e5b61191b565b602002602001015160400151610f41565b818181518110610e7e57610e7e61191b565b60200260200101516040015160026000848481518110610ea057610ea061191b565b60200260200101516000015163ffffffff1663ffffffff1681526020019081526020016000206000848481518110610eda57610eda61191b565b60200260200101516020015161ffff1661ffff1681526020019081526020016000209081610f089190611982565b50600101610e3d565b507fbe4864a8e820971c0247f5992e2da559595f7bf076a21cb5928d443d2a13b674816040516106d29190611a41565b600281015161ffff811660031461054e5781604051639a6d49cd60e01b81526004016104c39190611449565b6000813414610f91576040516304fb820960e51b81523460048201526024016104c3565b5090565b60007f00000000000000000000000000000000000000000000000000000000000000006001600160a01b031663e4fe1d946040518163ffffffff1660e01b8152600401602060405180830381865afa158015610ff5573d6000803e3d6000fd5b505050506040513d601f19601f820116820180604052508101906110199190611acc565b90506001600160a01b038116611042576040516329b99a9560e11b815260040160405180910390fd5b6040805133602482018190527f00000000000000000000000000000000000000000000000000000000000000006001600160a01b03818116604485015260648085018890528551808603909101815260849094019094526020830180516001600160e01b03166323b872dd60e01b17905261054e9385169286906110c79085906110cd565b50505050565b600080602060008451602086016000885af1806110f0576040513d6000823e3d81fd5b50506000513d91508115611108578060011415611115565b6001600160a01b0384163b155b156110c757604051635274afe760e01b81526001600160a01b03851660048201526024016104c3565b60405180606001604052806000801916815260200160006001600160401b03168152602001611180604051806040016040528060008152602001600081525090565b905290565b60006060828403121561119757600080fd5b50919050565b60008083601f8401126111af57600080fd5b5081356001600160401b038111156111c657600080fd5b6020830191508360208285010111156111de57600080fd5b9250929050565b6001600160a01b0381168114610a8a57600080fd5b600080600080600080600060e0888a03121561121557600080fd5b61121f8989611185565b96506060880135955060808801356001600160401b038082111561124257600080fd5b61124e8b838c0161119d565b909750955060a08a01359150611263826111e5565b90935060c0890135908082111561127957600080fd5b506112868a828b0161119d565b989b979a50959850939692959293505050565b803563ffffffff811681146112ad57600080fd5b919050565b600080604083850312156112c557600080fd5b6112ce83611299565b946020939093013593505050565b600080600080606085870312156112f257600080fd5b84356112fd816111e5565b935061130b60208601611299565b925060408501356001600160401b0381111561132657600080fd5b6113328782880161119d565b95989497509550505050565b60006020828403121561135057600080fd5b813561135b816111e5565b9392505050565b60008060006040848603121561137757600080fd5b61138084611299565b925060208401356001600160401b0381111561139b57600080fd5b6113a78682870161119d565b9497909650939450505050565b803561ffff811681146112ad57600080fd5b600080604083850312156113d957600080fd5b6113e283611299565b91506113f0602084016113b4565b90509250929050565b60005b838110156114145781810151838201526020016113fc565b50506000910152565b600081518084526114358160208601602086016113f9565b601f01601f19169290920160200192915050565b60208152600061135b602083018461141d565b60008060008060a0858703121561147257600080fd5b61147c8686611185565b935060608501356001600160401b0381111561149757600080fd5b6114a38782880161119d565b90945092505060808501356114b7816111e5565b939692955090935050565b600080602083850312156114d557600080fd5b82356001600160401b03808211156114ec57600080fd5b818501915085601f83011261150057600080fd5b81358181111561150f57600080fd5b8660208260051b850101111561152457600080fd5b60209290920196919550909350505050565b60006020828403121561154857600080fd5b61135b82611299565b6000806000806060858703121561156757600080fd5b61157085611299565b935061130b602086016113b4565b60006060828403121561159057600080fd5b61135b8383611185565b600181811c908216806115ae57607f821691505b60208210810361119757634e487b7160e01b600052602260045260246000fd5b634e487b7160e01b600052604160045260246000fd5b604051606081016001600160401b0381118282101715611606576116066115ce565b60405290565b604051601f8201601f191681016001600160401b0381118282101715611634576116346115ce565b604052919050565b60006001600160401b0380841115611656576116566115ce565b8360051b602061166781830161160c565b86815291850191818101903684111561167f57600080fd5b865b84811015611755578035868111156116995760008081fd5b880160603682900312156116ad5760008081fd5b6116b56115e4565b6116be82611299565b81526116cb8683016113b4565b86820152604080830135898111156116e35760008081fd5b9290920191601f36818501126116f95760008081fd5b83358a81111561170b5761170b6115ce565b61171c818301601f19168a0161160c565b915080825236898287010111156117335760008081fd5b808986018a840137600090820189015290820152845250918301918301611681565b50979650505050505050565b6000808585111561177157600080fd5b8386111561177e57600080fd5b5050820193919092039150565b6000845161179d8184602089016113f9565b8201838582376000930192835250909392505050565b60208152816020820152818360408301376000818301604090810191909152601f909201601f19160101919050565b6040815263ffffffff8351166040820152602083015160608201526000604084015160a0608084015261181860e084018261141d565b90506060850151603f198483030160a0850152611835828261141d565b60809690960151151560c08501525050506001600160a01b039190911660209091015290565b60006040828403121561186d57600080fd5b604051604081018181106001600160401b038211171561188f5761188f6115ce565b604052825181526020928301519281019290925250919050565b6000608082840312156118bb57600080fd5b6118c36115e4565b8251815260208301516001600160401b03811681146118e157600080fd5b60208201526118f3846040850161185b565b60408201529392505050565b60006040828403121561191157600080fd5b61135b838361185b565b634e487b7160e01b600052603260045260246000fd5b601f82111561197d576000816000526020600020601f850160051c8101602086101561195a5750805b601f850160051c820191505b8181101561197957828155600101611966565b5050505b505050565b81516001600160401b0381111561199b5761199b6115ce565b6119af816119a9845461159a565b84611931565b602080601f8311600181146119e457600084156119cc5750858301515b600019600386901b1c1916600185901b178555611979565b600085815260208120601f198616915b82811015611a13578886015182559484019460019091019084016119f4565b5085821015611a315787850151600019600388901b60f8161c191681555b5050505050600190811b01905550565b600060208083018184528085518083526040925060408601915060408160051b87010184880160005b83811015611abe57888303603f190185528151805163ffffffff1684528781015161ffff16888501528601516060878501819052611aaa8186018361141d565b968901969450505090860190600101611a6a565b509098975050505050505050565b600060208284031215611ade57600080fd5b815161135b816111e556fea2646970667358221220e4d17aab6f138983aac42b25703b70e598a134d125c200ecde4c803c0e089e0964736f6c63430008160033",
  "devdoc": {
    "details": "A cross-chain identity verification contract that allows users to create and propagate their verified identity status across multiple blockchains.",
    "errors": {
      "OwnableInvalidOwner(address)": [
        {
          "details": "The owner is not a valid owner account. (eg. `address(0)`)"
        }
      ],
      "OwnableUnauthorizedAccount(address)": [
        {
          "details": "The caller account is not authorized to perform an operation."
        }
      ],
      "SafeERC20FailedOperation(address)": [
        {
          "details": "An operation with an ERC-20 token failed."
        }
      ]
    },
    "kind": "dev",
    "methods": {
      "allowInitializePath((uint32,bytes32,uint64))": {
        "details": "This indicates to the endpoint that the OApp has enabled msgs for this particular path to be received.This defaults to assuming if a peer has been set, its initialized. Can be overridden by the OApp if there is other logic to determine this.",
        "params": {
          "origin": "The origin information containing the source endpoint and sender address."
        },
        "returns": {
          "_0": "Whether the path has been initialized."
        }
      },
      "combineOptions(uint32,uint16,bytes)": {
        "details": "If there is an enforced lzReceive option: - {gasLimit: 200k, msg.value: 1 ether} AND a caller supplies a lzReceive option: {gasLimit: 100k, msg.value: 0.5 ether} - The resulting options will be {gasLimit: 300k, msg.value: 1.5 ether} when the message is executed on the remote lzReceive() function.This presence of duplicated options is handled off-chain in the verifier/executor.",
        "params": {
          "_eid": "The endpoint ID.",
          "_extraOptions": "Additional options passed by the caller.",
          "_msgType": "The OAPP message type."
        },
        "returns": {
          "_0": "options The combination of caller specified options AND enforced options."
        }
      },
      "isComposeMsgSender((uint32,bytes32,uint64),bytes,address)": {
        "details": "_origin The origin information containing the source endpoint and sender address.  - srcEid: The source chain endpoint ID.  - sender: The sender address on the src chain.  - nonce: The nonce of the message._message The lzReceive payload.Applications can optionally choose to implement separate composeMsg senders that are NOT the bridging layer.The default sender IS the OAppReceiver implementer.",
        "params": {
          "_sender": "The sender address."
        },
        "returns": {
          "_0": "isSender Is a valid sender."
        }
      },
      "isVerified(address)": {
        "params": {
          "_user": "Address of the user to check"
        },
        "returns": {
          "_0": "bool True if the user is verified, false otherwise"
        }
      },
      "lzReceive((uint32,bytes32,uint64),bytes32,bytes,address,bytes)": {
        "details": "Entry point for receiving messages or packets from the endpoint.Entry point for receiving msg/packet from the LayerZero endpoint.",
        "params": {
          "_executor": "The address of the executor for the received message.",
          "_extraData": "Additional arbitrary data provided by the corresponding executor.",
          "_guid": "The unique identifier for the received LayerZero message.",
          "_message": "The payload of the received message.",
          "_origin": "The origin information containing the source endpoint and sender address.  - srcEid: The source chain endpoint ID.  - sender: The sender address on the src chain.  - nonce: The nonce of the message."
        }
      },
      "nextNonce(uint32,bytes32)": {
        "details": "_srcEid The source endpoint ID._sender The sender address.The path nonce starts from 1. If 0 is returned it means that there is NO nonce ordered enforcement.Is required by the off-chain executor to determine the OApp expects msg execution is ordered.This is also enforced by the OApp.By default this is NOT enabled. ie. nextNonce is hardcoded to return 0.",
        "returns": {
          "nonce": "The next nonce."
        }
      },
      "oAppVersion()": {
        "returns": {
          "receiverVersion": "The version of the OAppReceiver.sol implementation.",
          "senderVersion": "The version of the OAppSender.sol implementation."
        }
      },
      "owner()": {
        "details": "Returns the address of the current owner."
      },
      "propagateVerification(address,uint32,bytes)": {
        "params": {
          "_dstEid": "Destination endpoint ID",
          "_options": "Additional options for message execution",
          "_user": "Address of the user to propagate verification for"
        }
      },
      "quotePropagateFee(uint32,bytes)": {
        "params": {
          "_dstEid": "Destination endpoint ID",
          "_options": "Execution options for the message"
        },
        "returns": {
          "fee": "The MessagingFee struct containing the native fee"
        }
      },
      "renounceOwnership()": {
        "details": "Leaves the contract without owner. It will not be possible to call `onlyOwner` functions. Can only be called by the current owner. NOTE: Renouncing ownership will leave the contract without an owner, thereby disabling any functionality that is only available to the owner."
      },
      "setDelegate(address)": {
        "details": "Only the owner/admin of the OApp can call this function.Provides the ability for a delegate to set configs, on behalf of the OApp, directly on the Endpoint contract.",
        "params": {
          "_delegate": "The address of the delegate to be set."
        }
      },
      "setEnforcedOptions((uint32,uint16,bytes)[])": {
        "details": "Sets the enforced options for specific endpoint and message type combinations.Only the owner/admin of the OApp can call this function.Provides a way for the OApp to enforce things like paying for PreCrime, AND/OR minimum dst lzReceive gas amounts etc.These enforced options can vary as the potential options/execution on the remote may differ as per the msgType. eg. Amount of lzReceive() gas necessary to deliver a lzCompose() message adds overhead you dont want to pay if you are only making a standard LayerZero message ie. lzReceive() WITHOUT sendCompose().",
        "params": {
          "_enforcedOptions": "An array of EnforcedOptionParam structures specifying enforced options."
        }
      },
      "setPeer(uint32,bytes32)": {
        "details": "Only the owner/admin of the OApp can call this function.Indicates that the peer is trusted to send LayerZero messages to this OApp.Set this to bytes32(0) to remove the peer address.Peer is a bytes32 to accommodate non-evm chains.",
        "params": {
          "_eid": "The endpoint ID.",
          "_peer": "The address of the peer to be associated with the corresponding endpoint."
        }
      },
      "transferOwnership(address)": {
        "details": "Transfers ownership of the contract to a new account (`newOwner`). Can only be called by the current owner."
      },
      "verifyUser(address)": {
        "params": {
          "_user": "Address of the user to verify"
        }
      }
    },
    "title": "IdentityPassport",
    "version": 1
  },
  "userdoc": {
    "kind": "user",
    "methods": {
      "allowInitializePath((uint32,bytes32,uint64))": {
        "notice": "Checks if the path initialization is allowed based on the provided origin."
      },
      "combineOptions(uint32,uint16,bytes)": {
        "notice": "Combines options for a given endpoint and message type."
      },
      "endpoint()": {
        "notice": "Retrieves the LayerZero endpoint associated with the OApp."
      },
      "isComposeMsgSender((uint32,bytes32,uint64),bytes,address)": {
        "notice": "Indicates whether an address is an approved composeMsg sender to the Endpoint."
      },
      "isVerified(address)": {
        "notice": "Checks if a user is verified"
      },
      "nextNonce(uint32,bytes32)": {
        "notice": "Retrieves the next nonce for a given source endpoint and sender address."
      },
      "oAppVersion()": {
        "notice": "Retrieves the OApp version information."
      },
      "peers(uint32)": {
        "notice": "Retrieves the peer (OApp) associated with a corresponding endpoint."
      },
      "propagateVerification(address,uint32,bytes)": {
        "notice": "Propagates a user's verification status to another chain"
      },
      "quotePropagateFee(uint32,bytes)": {
        "notice": "Quote the fee for propagating verification to another chain"
      },
      "setDelegate(address)": {
        "notice": "Sets the delegate address for the OApp."
      },
      "setPeer(uint32,bytes32)": {
        "notice": "Sets the peer address (OApp instance) for a corresponding endpoint."
      },
      "verifyUser(address)": {
        "notice": "Verifies a user's identity locally on this chain"
      }
    },
    "version": 1
  },
  "storageLayout": {
    "storage": [
      {
        "astId": 1533,
        "contract": "contracts/IdentityPassport.sol:IdentityPassport",
        "label": "_owner",
        "offset": 0,
        "slot": "0",
        "type": "t_address"
      },
      {
        "astId": 785,
        "contract": "contracts/IdentityPassport.sol:IdentityPassport",
        "label": "peers",
        "offset": 0,
        "slot": "1",
        "type": "t_mapping(t_uint32,t_bytes32)"
      },
      {
        "astId": 1381,
        "contract": "contracts/IdentityPassport.sol:IdentityPassport",
        "label": "enforcedOptions",
        "offset": 0,
        "slot": "2",
        "type": "t_mapping(t_uint32,t_mapping(t_uint16,t_bytes_storage))"
      },
      {
        "astId": 2370,
        "contract": "contracts/IdentityPassport.sol:IdentityPassport",
        "label": "verifiedUsers",
        "offset": 0,
        "slot": "3",
        "type": "t_mapping(t_address,t_bool)"
      }
    ],
    "types": {
      "t_address": {
        "encoding": "inplace",
        "label": "address",
        "numberOfBytes": "20"
      },
      "t_bool": {
        "encoding": "inplace",
        "label": "bool",
        "numberOfBytes": "1"
      },
      "t_bytes32": {
        "encoding": "inplace",
        "label": "bytes32",
        "numberOfBytes": "32"
      },
      "t_bytes_storage": {
        "encoding": "bytes",
        "label": "bytes",
        "numberOfBytes": "32"
      },
      "t_mapping(t_address,t_bool)": {
        "encoding": "mapping",
        "key": "t_address",
        "label": "mapping(address => bool)",
        "numberOfBytes": "32",
        "value": "t_bool"
      },
      "t_mapping(t_uint16,t_bytes_storage)": {
        "encoding": "mapping",
        "key": "t_uint16",
        "label": "mapping(uint16 => bytes)",
        "numberOfBytes": "32",
        "value": "t_bytes_storage"
      },
      "t_mapping(t_uint32,t_bytes32)": {
        "encoding": "mapping",
        "key": "t_uint32",
        "label": "mapping(uint32 => bytes32)",
        "numberOfBytes": "32",
        "value": "t_bytes32"
      },
      "t_mapping(t_uint32,t_mapping(t_uint16,t_bytes_storage))": {
        "encoding": "mapping",
        "key": "t_uint32",
        "label": "mapping(uint32 => mapping(uint16 => bytes))",
        "numberOfBytes": "32",
        "value": "t_mapping(t_uint16,t_bytes_storage)"
      },
      "t_uint16": {
        "encoding": "inplace",
        "label": "uint16",
        "numberOfBytes": "2"
      },
      "t_uint32": {
        "encoding": "inplace",
        "label": "uint32",
        "numberOfBytes": "4"
      }
    }
  }
}