{
  "_format": "hh-sol-artifact-1",
  "contractName": "PassportNFT",
  "sourceName": "contracts/PassportNFT.sol",
  "abi": [
    {
      "inputs": [],
      "stateMutability": "nonpayable",
      "type": "constructor"
    },
    {
      "anonymous": false,
      "inputs": [
        {
          "indexed": true,
          "internalType": "address",
          "name": "owner",
          "type": "address"
        },
        {
          "indexed": true,
          "internalType": "address",
          "name": "approved",
          "type": "address"
        },
        {
          "indexed": true,
          "internalType": "uint256",
          "name": "tokenId",
          "type": "uint256"
        }
      ],
      "name": "Approval",
      "type": "event"
    },
    {
      "anonymous": false,
      "inputs": [
        {
          "indexed": true,
          "internalType": "address",
          "name": "owner",
          "type": "address"
        },
        {
          "indexed": true,
          "internalType": "address",
          "name": "operator",
          "type": "address"
        },
        {
          "indexed": false,
          "internalType": "bool",
          "name": "approved",
          "type": "bool"
        }
      ],
      "name": "ApprovalForAll",
      "type": "event"
    },
    {
      "anonymous": false,
      "inputs": [
        {
          "indexed": false,
          "internalType": "uint256",
          "name": "_fromTokenId",
          "type": "uint256"
        },
        {
          "indexed": false,
          "internalType": "uint256",
          "name": "_toTokenId",
          "type": "uint256"
        }
      ],
      "name": "BatchMetadataUpdate",
      "type": "event"
    },
    {
      "anonymous": false,
      "inputs": [
        {
          "indexed": false,
          "internalType": "uint256",
          "name": "_tokenId",
          "type": "uint256"
        }
      ],
      "name": "MetadataUpdate",
      "type": "event"
    },
    {
      "anonymous": false,
      "inputs": [
        {
          "indexed": true,
          "internalType": "address",
          "name": "previousOwner",
          "type": "address"
        },
        {
          "indexed": true,
          "internalType": "address",
          "name": "newOwner",
          "type": "address"
        }
      ],
      "name": "OwnershipTransferred",
      "type": "event"
    },
    {
      "anonymous": false,
      "inputs": [
        {
          "indexed": true,
          "internalType": "address",
          "name": "from",
          "type": "address"
        },
        {
          "indexed": true,
          "internalType": "address",
          "name": "to",
          "type": "address"
        },
        {
          "indexed": true,
          "internalType": "uint256",
          "name": "tokenId",
          "type": "uint256"
        }
      ],
      "name": "Transfer",
      "type": "event"
    },
    {
      "inputs": [
        {
          "internalType": "address",
          "name": "to",
          "type": "address"
        },
        {
          "internalType": "uint256",
          "name": "tokenId",
          "type": "uint256"
        }
      ],
      "name": "approve",
      "outputs": [],
      "stateMutability": "nonpayable",
      "type": "function"
    },
    {
      "inputs": [
        {
          "internalType": "address",
          "name": "owner",
          "type": "address"
        }
      ],
      "name": "balanceOf",
      "outputs": [
        {
          "internalType": "uint256",
          "name": "",
          "type": "uint256"
        }
      ],
      "stateMutability": "view",
      "type": "function"
    },
    {
      "inputs": [
        {
          "internalType": "uint256",
          "name": "tokenId",
          "type": "uint256"
        }
      ],
      "name": "getApproved",
      "outputs": [
        {
          "internalType": "address",
          "name": "",
          "type": "address"
        }
      ],
      "stateMutability": "view",
      "type": "function"
    },
    {
      "inputs": [
        {
          "internalType": "uint256",
          "name": "tokenId",
          "type": "uint256"
        }
      ],
      "name": "getPassportMetadata",
      "outputs": [
        {
          "components": [
            {
              "internalType": "string",
              "name": "name",
              "type": "string"
            },
            {
              "internalType": "string",
              "name": "image",
              "type": "string"
            },
            {
              "internalType": "address",
              "name": "owner",
              "type": "address"
            },
            {
              "internalType": "uint256",
              "name": "creationTimestamp",
              "type": "uint256"
            }
          ],
          "internalType": "struct PassportNFT.PassportMetadata",
          "name": "",
          "type": "tuple"
        }
      ],
      "stateMutability": "view",
      "type": "function"
    },
    {
      "inputs": [
        {
          "internalType": "address",
          "name": "owner",
          "type": "address"
        },
        {
          "internalType": "address",
          "name": "operator",
          "type": "address"
        }
      ],
      "name": "isApprovedForAll",
      "outputs": [
        {
          "internalType": "bool",
          "name": "",
          "type": "bool"
        }
      ],
      "stateMutability": "view",
      "type": "function"
    },
    {
      "inputs": [
        {
          "internalType": "string",
          "name": "name",
          "type": "string"
        },
        {
          "internalType": "string",
          "name": "image",
          "type": "string"
        },
        {
          "internalType": "string",
          "name": "tokenURI",
          "type": "string"
        }
      ],
      "name": "mint",
      "outputs": [
        {
          "internalType": "uint256",
          "name": "",
          "type": "uint256"
        }
      ],
      "stateMutability": "nonpayable",
      "type": "function"
    },
    {
      "inputs": [],
      "name": "name",
      "outputs": [
        {
          "internalType": "string",
          "name": "",
          "type": "string"
        }
      ],
      "stateMutability": "view",
      "type": "function"
    },
    {
      "inputs": [],
      "name": "owner",
      "outputs": [
        {
          "internalType": "address",
          "name": "",
          "type": "address"
        }
      ],
      "stateMutability": "view",
      "type": "function"
    },
    {
      "inputs": [
        {
          "internalType": "uint256",
          "name": "tokenId",
          "type": "uint256"
        }
      ],
      "name": "ownerOf",
      "outputs": [
        {
          "internalType": "address",
          "name": "",
          "type": "address"
        }
      ],
      "stateMutability": "view",
      "type": "function"
    },
    {
      "inputs": [],
      "name": "renounceOwnership",
      "outputs": [],
      "stateMutability": "nonpayable",
      "type": "function"
    },
    {
      "inputs": [
        {
          "internalType": "address",
          "name": "from",
          "type": "address"
        },
        {
          "internalType": "address",
          "name": "to",
          "type": "address"
        },
        {
          "internalType": "uint256",
          "name": "tokenId",
          "type": "uint256"
        }
      ],
      "name": "safeTransferFrom",
      "outputs": [],
      "stateMutability": "nonpayable",
      "type": "function"
    },
    {
      "inputs": [
        {
          "internalType": "address",
          "name": "from",
          "type": "address"
        },
        {
          "internalType": "address",
          "name": "to",
          "type": "address"
        },
        {
          "internalType": "uint256",
          "name": "tokenId",
          "type": "uint256"
        },
        {
          "internalType": "bytes",
          "name": "data",
          "type": "bytes"
        }
      ],
      "name": "safeTransferFrom",
      "outputs": [],
      "stateMutability": "nonpayable",
      "type": "function"
    },
    {
      "inputs": [
        {
          "internalType": "address",
          "name": "operator",
          "type": "address"
        },
        {
          "internalType": "bool",
          "name": "approved",
          "type": "bool"
        }
      ],
      "name": "setApprovalForAll",
      "outputs": [],
      "stateMutability": "nonpayable",
      "type": "function"
    },
    {
      "inputs": [
        {
          "internalType": "bytes4",
          "name": "interfaceId",
          "type": "bytes4"
        }
      ],
      "name": "supportsInterface",
      "outputs": [
        {
          "internalType": "bool",
          "name": "",
          "type": "bool"
        }
      ],
      "stateMutability": "view",
      "type": "function"
    },
    {
      "inputs": [],
      "name": "symbol",
      "outputs": [
        {
          "internalType": "string",
          "name": "",
          "type": "string"
        }
      ],
      "stateMutability": "view",
      "type": "function"
    },
    {
      "inputs": [
        {
          "internalType": "uint256",
          "name": "tokenId",
          "type": "uint256"
        }
      ],
      "name": "tokenURI",
      "outputs": [
        {
          "internalType": "string",
          "name": "",
          "type": "string"
        }
      ],
      "stateMutability": "view",
      "type": "function"
    },
    {
      "inputs": [
        {
          "internalType": "address",
          "name": "from",
          "type": "address"
        },
        {
          "internalType": "address",
          "name": "to",
          "type": "address"
        },
        {
          "internalType": "uint256",
          "name": "tokenId",
          "type": "uint256"
        }
      ],
      "name": "transferFrom",
      "outputs": [],
      "stateMutability": "nonpayable",
      "type": "function"
    },
    {
      "inputs": [
        {
          "internalType": "address",
          "name": "newOwner",
          "type": "address"
        }
      ],
      "name": "transferOwnership",
      "outputs": [],
      "stateMutability": "nonpayable",
      "type": "function"
    }
  ],
  "bytecode": "0x60806040523480156200001157600080fd5b50604051806040016040528060088152602001674f6d6e695061737360c01b81525060405180604001604052806008815260200167141054d4d413d49560c21b815250816000908162000065919062000192565b50600162000074828262000192565b505050620000916200008b6200009760201b60201c565b6200009b565b6200025e565b3390565b600780546001600160a01b038381166001600160a01b0319831681179093556040519116919082907f8be0079c531659141344cd1fd0a4f28419497f9722a3daafe3b4186f6b6457e090600090a35050565b634e487b7160e01b600052604160045260246000fd5b600181811c908216806200011857607f821691505b6020821081036200013957634e487b7160e01b600052602260045260246000fd5b50919050565b601f8211156200018d57600081815260208120601f850160051c81016020861015620001685750805b601f850160051c820191505b81811015620001895782815560010162000174565b5050505b505050565b81516001600160401b03811115620001ae57620001ae620000ed565b620001c681620001bf845462000103565b846200013f565b602080601f831160018114620001fe5760008415620001e55750858301515b600019600386901b1c1916600185901b17855562000189565b600085815260208120601f198616915b828110156200022f578886015182559484019460019091019084016200020e565b50858210156200024e5787850151600019600388901b60f8161c191681555b5050505050600190811b01905550565b611bb6806200026e6000396000f3fe608060405234801561001057600080fd5b50600436106101165760003560e01c8063715018a6116100a2578063b88d4fde11610071578063b88d4fde1461024a578063c87b56dd1461025d578063d645ddf614610270578063e985e9c514610283578063f2fde38b146102bf57600080fd5b8063715018a6146102165780638da5cb5b1461021e57806395d89b411461022f578063a22cb4651461023757600080fd5b8063095ea7b3116100e9578063095ea7b3146101a757806323b872dd146101bc57806342842e0e146101cf5780636352211e146101e257806370a08231146101f557600080fd5b806301a265bb1461011b57806301ffc9a71461014457806306fdde0314610167578063081812fc1461017c575b600080fd5b61012e6101293660046114d4565b6102d2565b60405161013b919061153d565b60405180910390f35b6101576101523660046115b8565b6104cf565b604051901515815260200161013b565b61016f6104fa565b60405161013b91906115d5565b61018f61018a3660046114d4565b61058c565b6040516001600160a01b03909116815260200161013b565b6101ba6101b5366004611604565b6105b3565b005b6101ba6101ca36600461162e565b6106c8565b6101ba6101dd36600461162e565b6106f9565b61018f6101f03660046114d4565b610714565b61020861020336600461166a565b610774565b60405190815260200161013b565b6101ba6107fa565b6007546001600160a01b031661018f565b61016f61080e565b6101ba610245366004611685565b61081d565b6101ba61025836600461174d565b61082c565b61016f61026b3660046114d4565b610864565b61020861027e3660046117e9565b610974565b610157610291366004611871565b6001600160a01b03918216600090815260056020908152604080832093909416825291909152205460ff1690565b6101ba6102cd36600461166a565b610a2c565b6103066040518060800160405280606081526020016060815260200160006001600160a01b03168152602001600081525090565b6000828152600260205260409020546001600160a01b031661036f5760405162461bcd60e51b815260206004820152601760248201527f50617373706f727420646f6573206e6f7420657869737400000000000000000060448201526064015b60405180910390fd5b60008281526009602052604090819020815160808101909252805482908290610397906118a4565b80601f01602080910402602001604051908101604052809291908181526020018280546103c3906118a4565b80156104105780601f106103e557610100808354040283529160200191610410565b820191906000526020600020905b8154815290600101906020018083116103f357829003601f168201915b50505050508152602001600182018054610429906118a4565b80601f0160208091040260200160405190810160405280929190818152602001828054610455906118a4565b80156104a25780601f10610477576101008083540402835291602001916104a2565b820191906000526020600020905b81548152906001019060200180831161048557829003601f168201915b505050918352505060028201546001600160a01b0316602082015260039091015460409091015292915050565b60006001600160e01b03198216632483248360e11b14806104f457506104f482610aa5565b92915050565b606060008054610509906118a4565b80601f0160208091040260200160405190810160405280929190818152602001828054610535906118a4565b80156105825780601f1061055757610100808354040283529160200191610582565b820191906000526020600020905b81548152906001019060200180831161056557829003601f168201915b5050505050905090565b600061059782610af5565b506000908152600460205260409020546001600160a01b031690565b60006105be82610714565b9050806001600160a01b0316836001600160a01b03160361062b5760405162461bcd60e51b815260206004820152602160248201527f4552433732313a20617070726f76616c20746f2063757272656e74206f776e656044820152603960f91b6064820152608401610366565b336001600160a01b038216148061064757506106478133610291565b6106b95760405162461bcd60e51b815260206004820152603d60248201527f4552433732313a20617070726f76652063616c6c6572206973206e6f7420746f60448201527f6b656e206f776e6572206f7220617070726f76656420666f7220616c6c0000006064820152608401610366565b6106c38383610b54565b505050565b6106d23382610bc2565b6106ee5760405162461bcd60e51b8152600401610366906118de565b6106c3838383610c40565b6106c38383836040518060200160405280600081525061082c565b6000818152600260205260408120546001600160a01b0316806104f45760405162461bcd60e51b8152602060048201526018602482015277115490cdcc8c4e881a5b9d985b1a59081d1bdad95b88125160421b6044820152606401610366565b60006001600160a01b0382166107de5760405162461bcd60e51b815260206004820152602960248201527f4552433732313a2061646472657373207a65726f206973206e6f7420612076616044820152683634b21037bbb732b960b91b6064820152608401610366565b506001600160a01b031660009081526003602052604090205490565b610802610da4565b61080c6000610dfe565b565b606060018054610509906118a4565b610828338383610e50565b5050565b6108363383610bc2565b6108525760405162461bcd60e51b8152600401610366906118de565b61085e84848484610f1e565b50505050565b606061086f82610af5565b60008281526006602052604081208054610888906118a4565b80601f01602080910402602001604051908101604052809291908181526020018280546108b4906118a4565b80156109015780601f106108d657610100808354040283529160200191610901565b820191906000526020600020905b8154815290600101906020018083116108e457829003601f168201915b50505050509050600061091f60408051602081019091526000815290565b90508051600003610931575092915050565b81511561096357808260405160200161094b92919061192b565b60405160208183030381529060405292505050919050565b61096c84610f51565b949350505050565b600880546000918190836109878361195a565b91905055506109963382610fc5565b6109a08184610fdf565b60408051608081018252868152602080820187905233828401524260608301526000848152600990915291909120815181906109dc90826119cf565b50602082015160018201906109f190826119cf565b5060408201516002820180546001600160a01b0319166001600160a01b03909216919091179055606090910151600390910155949350505050565b610a34610da4565b6001600160a01b038116610a995760405162461bcd60e51b815260206004820152602660248201527f4f776e61626c653a206e6577206f776e657220697320746865207a65726f206160448201526564647265737360d01b6064820152608401610366565b610aa281610dfe565b50565b60006001600160e01b031982166380ac58cd60e01b1480610ad657506001600160e01b03198216635b5e139f60e01b145b806104f457506301ffc9a760e01b6001600160e01b03198316146104f4565b6000818152600260205260409020546001600160a01b0316610aa25760405162461bcd60e51b8152602060048201526018602482015277115490cdcc8c4e881a5b9d985b1a59081d1bdad95b88125160421b6044820152606401610366565b600081815260046020526040902080546001600160a01b0319166001600160a01b0384169081179091558190610b8982610714565b6001600160a01b03167f8c5be1e5ebec7d5bd14f71427d1e84f3dd0314c0f7b2291e5b200ac8c7c3b92560405160405180910390a45050565b600080610bce83610714565b9050806001600160a01b0316846001600160a01b03161480610c1557506001600160a01b0380821660009081526005602090815260408083209388168352929052205460ff165b8061096c5750836001600160a01b0316610c2e8461058c565b6001600160a01b031614949350505050565b826001600160a01b0316610c5382610714565b6001600160a01b031614610c795760405162461bcd60e51b815260040161036690611a8f565b6001600160a01b038216610cdb5760405162461bcd60e51b8152602060048201526024808201527f4552433732313a207472616e7366657220746f20746865207a65726f206164646044820152637265737360e01b6064820152608401610366565b826001600160a01b0316610cee82610714565b6001600160a01b031614610d145760405162461bcd60e51b815260040161036690611a8f565b600081815260046020908152604080832080546001600160a01b03199081169091556001600160a01b0387811680865260038552838620805460001901905590871680865283862080546001019055868652600290945282852080549092168417909155905184937fddf252ad1be2c89b69c2b068fc378daa952ba7f163c4a11628f55a4df523b3ef91a4505050565b6007546001600160a01b0316331461080c5760405162461bcd60e51b815260206004820181905260248201527f4f776e61626c653a2063616c6c6572206973206e6f7420746865206f776e65726044820152606401610366565b600780546001600160a01b038381166001600160a01b0319831681179093556040519116919082907f8be0079c531659141344cd1fd0a4f28419497f9722a3daafe3b4186f6b6457e090600090a35050565b816001600160a01b0316836001600160a01b031603610eb15760405162461bcd60e51b815260206004820152601960248201527f4552433732313a20617070726f766520746f2063616c6c6572000000000000006044820152606401610366565b6001600160a01b03838116600081815260056020908152604080832094871680845294825291829020805460ff191686151590811790915591519182527f17307eab39ab6107e8899845ad3d59bd9653f200f220920489ca2b5937696c31910160405180910390a3505050565b610f29848484610c40565b610f35848484846110aa565b61085e5760405162461bcd60e51b815260040161036690611ad4565b6060610f5c82610af5565b6000610f7360408051602081019091526000815290565b90506000815111610f935760405180602001604052806000815250610fbe565b80610f9d846111ab565b604051602001610fae92919061192b565b6040516020818303038152906040525b9392505050565b61082882826040518060200160405280600081525061123e565b6000828152600260205260409020546001600160a01b031661105a5760405162461bcd60e51b815260206004820152602e60248201527f45524337323155524953746f726167653a2055524920736574206f66206e6f6e60448201526d32bc34b9ba32b73a103a37b5b2b760911b6064820152608401610366565b600082815260066020526040902061107282826119cf565b506040518281527ff8e1a15aba9398e019f0b49df1a4fde98ee17ae345cb5f6b5e2c27f5033e8ce79060200160405180910390a15050565b60006001600160a01b0384163b156111a057604051630a85bd0160e11b81526001600160a01b0385169063150b7a02906110ee903390899088908890600401611b26565b6020604051808303816000875af1925050508015611129575060408051601f3d908101601f1916820190925261112691810190611b63565b60015b611186573d808015611157576040519150601f19603f3d011682016040523d82523d6000602084013e61115c565b606091505b50805160000361117e5760405162461bcd60e51b815260040161036690611ad4565b805181602001fd5b6001600160e01b031916630a85bd0160e11b14905061096c565b506001949350505050565b606060006111b883611271565b600101905060008167ffffffffffffffff8111156111d8576111d86116c1565b6040519080825280601f01601f191660200182016040528015611202576020820181803683370190505b5090508181016020015b600019016f181899199a1a9b1b9c1cb0b131b232b360811b600a86061a8153600a850494508461120c57509392505050565b6112488383611349565b61125560008484846110aa565b6106c35760405162461bcd60e51b815260040161036690611ad4565b60008072184f03e93ff9f4daa797ed6e38ed64bf6a1f0160401b83106112b05772184f03e93ff9f4daa797ed6e38ed64bf6a1f0160401b830492506040015b6d04ee2d6d415b85acef810000000083106112dc576d04ee2d6d415b85acef8100000000830492506020015b662386f26fc1000083106112fa57662386f26fc10000830492506010015b6305f5e1008310611312576305f5e100830492506008015b612710831061132657612710830492506004015b60648310611338576064830492506002015b600a83106104f45760010192915050565b6001600160a01b03821661139f5760405162461bcd60e51b815260206004820181905260248201527f4552433732313a206d696e7420746f20746865207a65726f20616464726573736044820152606401610366565b6000818152600260205260409020546001600160a01b0316156114045760405162461bcd60e51b815260206004820152601c60248201527f4552433732313a20746f6b656e20616c7265616479206d696e746564000000006044820152606401610366565b6000818152600260205260409020546001600160a01b0316156114695760405162461bcd60e51b815260206004820152601c60248201527f4552433732313a20746f6b656e20616c7265616479206d696e746564000000006044820152606401610366565b6001600160a01b038216600081815260036020908152604080832080546001019055848352600290915280822080546001600160a01b0319168417905551839291907fddf252ad1be2c89b69c2b068fc378daa952ba7f163c4a11628f55a4df523b3ef908290a45050565b6000602082840312156114e657600080fd5b5035919050565b60005b838110156115085781810151838201526020016114f0565b50506000910152565b600081518084526115298160208601602086016114ed565b601f01601f19169290920160200192915050565b60208152600082516080602084015261155960a0840182611511565b90506020840151601f198483030160408501526115768282611511565b60408601516001600160a01b031660608681019190915290950151608090940193909352509192915050565b6001600160e01b031981168114610aa257600080fd5b6000602082840312156115ca57600080fd5b8135610fbe816115a2565b602081526000610fbe6020830184611511565b80356001600160a01b03811681146115ff57600080fd5b919050565b6000806040838503121561161757600080fd5b611620836115e8565b946020939093013593505050565b60008060006060848603121561164357600080fd5b61164c846115e8565b925061165a602085016115e8565b9150604084013590509250925092565b60006020828403121561167c57600080fd5b610fbe826115e8565b6000806040838503121561169857600080fd5b6116a1836115e8565b9150602083013580151581146116b657600080fd5b809150509250929050565b634e487b7160e01b600052604160045260246000fd5b600067ffffffffffffffff808411156116f2576116f26116c1565b604051601f8501601f19908116603f0116810190828211818310171561171a5761171a6116c1565b8160405280935085815286868601111561173357600080fd5b858560208301376000602087830101525050509392505050565b6000806000806080858703121561176357600080fd5b61176c856115e8565b935061177a602086016115e8565b925060408501359150606085013567ffffffffffffffff81111561179d57600080fd5b8501601f810187136117ae57600080fd5b6117bd878235602084016116d7565b91505092959194509250565b600082601f8301126117da57600080fd5b610fbe838335602085016116d7565b6000806000606084860312156117fe57600080fd5b833567ffffffffffffffff8082111561181657600080fd5b611822878388016117c9565b9450602086013591508082111561183857600080fd5b611844878388016117c9565b9350604086013591508082111561185a57600080fd5b50611867868287016117c9565b9150509250925092565b6000806040838503121561188457600080fd5b61188d836115e8565b915061189b602084016115e8565b90509250929050565b600181811c908216806118b857607f821691505b6020821081036118d857634e487b7160e01b600052602260045260246000fd5b50919050565b6020808252602d908201527f4552433732313a2063616c6c6572206973206e6f7420746f6b656e206f776e6560408201526c1c881bdc88185c1c1c9bdd9959609a1b606082015260800190565b6000835161193d8184602088016114ed565b8351908301906119518183602088016114ed565b01949350505050565b60006001820161197a57634e487b7160e01b600052601160045260246000fd5b5060010190565b601f8211156106c357600081815260208120601f850160051c810160208610156119a85750805b601f850160051c820191505b818110156119c7578281556001016119b4565b505050505050565b815167ffffffffffffffff8111156119e9576119e96116c1565b6119fd816119f784546118a4565b84611981565b602080601f831160018114611a325760008415611a1a5750858301515b600019600386901b1c1916600185901b1785556119c7565b600085815260208120601f198616915b82811015611a6157888601518255948401946001909101908401611a42565b5085821015611a7f5787850151600019600388901b60f8161c191681555b5050505050600190811b01905550565b60208082526025908201527f4552433732313a207472616e736665722066726f6d20696e636f72726563742060408201526437bbb732b960d91b606082015260800190565b60208082526032908201527f4552433732313a207472616e7366657220746f206e6f6e20455243373231526560408201527131b2b4bb32b91034b6b83632b6b2b73a32b960711b606082015260800190565b6001600160a01b0385811682528416602082015260408101839052608060608201819052600090611b5990830184611511565b9695505050505050565b600060208284031215611b7557600080fd5b8151610fbe816115a256fea26469706673582212200fce407f8412e70ace3a66dc5e098cbfeeddaa2b02f6b2a6c4304a4582312e3064736f6c63430008110033",
  "linkReferences": {},
  "deployedLinkReferences": {}
}