{
  "_format": "hh-sol-artifact-1",
  "contractName": "CredentialManager",
  "sourceName": "contracts/CredentialManager.sol",
  "abi": [
    {
      "inputs": [],
      "stateMutability": "nonpayable",
      "type": "constructor"
    },
    {
      "anonymous": false,
      "inputs": [
        {
          "indexed": true,
          "internalType": "uint256",
          "name": "passportId",
          "type": "uint256"
        },
        {
          "indexed": true,
          "internalType": "uint256",
          "name": "credentialId",
          "type": "uint256"
        },
        {
          "indexed": false,
          "internalType": "string",
          "name": "credentialType",
          "type": "string"
        }
      ],
      "name": "CredentialIssued",
      "type": "event"
    },
    {
      "anonymous": false,
      "inputs": [
        {
          "indexed": true,
          "internalType": "address",
          "name": "previousOwner",
          "type": "address"
        },
        {
          "indexed": true,
          "internalType": "address",
          "name": "newOwner",
          "type": "address"
        }
      ],
      "name": "OwnershipTransferred",
      "type": "event"
    },
    {
      "inputs": [
        {
          "internalType": "uint256",
          "name": "passportId",
          "type": "uint256"
        },
        {
          "internalType": "string",
          "name": "credentialType",
          "type": "string"
        },
        {
          "internalType": "string",
          "name": "data",
          "type": "string"
        }
      ],
      "name": "createCredential",
      "outputs": [
        {
          "internalType": "uint256",
          "name": "",
          "type": "uint256"
        }
      ],
      "stateMutability": "nonpayable",
      "type": "function"
    },
    {
      "inputs": [
        {
          "internalType": "uint256",
          "name": "passportId",
          "type": "uint256"
        }
      ],
      "name": "getPassportCredentials",
      "outputs": [
        {
          "components": [
            {
              "internalType": "uint256",
              "name": "passportId",
              "type": "uint256"
            },
            {
              "internalType": "string",
              "name": "credentialType",
              "type": "string"
            },
            {
              "internalType": "string",
              "name": "data",
              "type": "string"
            },
            {
              "internalType": "uint256",
              "name": "issuanceTimestamp",
              "type": "uint256"
            },
            {
              "internalType": "address",
              "name": "issuer",
              "type": "address"
            },
            {
              "internalType": "bool",
              "name": "isValid",
              "type": "bool"
            }
          ],
          "internalType": "struct CredentialManager.Credential[]",
          "name": "",
          "type": "tuple[]"
        }
      ],
      "stateMutability": "view",
      "type": "function"
    },
    {
      "inputs": [],
      "name": "owner",
      "outputs": [
        {
          "internalType": "address",
          "name": "",
          "type": "address"
        }
      ],
      "stateMutability": "view",
      "type": "function"
    },
    {
      "inputs": [],
      "name": "renounceOwnership",
      "outputs": [],
      "stateMutability": "nonpayable",
      "type": "function"
    },
    {
      "inputs": [
        {
          "internalType": "uint256",
          "name": "credentialId",
          "type": "uint256"
        }
      ],
      "name": "revokeCredential",
      "outputs": [],
      "stateMutability": "nonpayable",
      "type": "function"
    },
    {
      "inputs": [
        {
          "internalType": "address",
          "name": "newOwner",
          "type": "address"
        }
      ],
      "name": "transferOwnership",
      "outputs": [],
      "stateMutability": "nonpayable",
      "type": "function"
    },
    {
      "inputs": [
        {
          "internalType": "uint256",
          "name": "passportId",
          "type": "uint256"
        },
        {
          "internalType": "string",
          "name": "credentialType",
          "type": "string"
        }
      ],
      "name": "verifyCredential",
      "outputs": [
        {
          "internalType": "bool",
          "name": "",
          "type": "bool"
        }
      ],
      "stateMutability": "view",
      "type": "function"
    }
  ],
  "bytecode": "0x608060405234801561001057600080fd5b5061001a3361001f565b61006f565b600080546001600160a01b038381166001600160a01b0319831681178455604051919092169283917f8be0079c531659141344cd1fd0a4f28419497f9722a3daafe3b4186f6b6457e09190a35050565b610dc88061007e6000396000f3fe608060405234801561001057600080fd5b506004361061007d5760003560e01c80638da5cb5b1161005b5780638da5cb5b146100c75780638f68064c146100e2578063dcc8c6c914610103578063f2fde38b1461012357600080fd5b80631b87278d14610082578063715018a614610097578063896da1f71461009f575b600080fd5b610095610090366004610959565b610136565b005b6100956101d7565b6100b26100ad366004610a15565b6101eb565b60405190151581526020015b60405180910390f35b6000546040516001600160a01b0390911681526020016100be565b6100f56100f0366004610a5c565b61043e565b6040519081526020016100be565b610116610111366004610959565b61056b565b6040516100be9190610b0f565b610095610131366004610bc9565b610836565b6000818152600260205260409020600401546001600160a01b031633148061016857506000546001600160a01b031633145b6101b95760405162461bcd60e51b815260206004820152601860248201527f4e6f7420617574686f72697a656420746f207265766f6b65000000000000000060448201526064015b60405180910390fd5b6000908152600260205260409020600401805460ff60a01b19169055565b6101df6108af565b6101e96000610909565b565b60008281526001602090815260408083208054825181850281018501909352808352849383018282801561023e57602002820191906000526020600020905b81548152602001906001019080831161022a575b5050505050905060005b81518110156104315760006002600084848151811061026957610269610bf9565b602002602001015181526020019081526020016000206040518060c0016040529081600082015481526020016001820180546102a490610c0f565b80601f01602080910402602001604051908101604052809291908181526020018280546102d090610c0f565b801561031d5780601f106102f25761010080835404028352916020019161031d565b820191906000526020600020905b81548152906001019060200180831161030057829003601f168201915b5050505050815260200160028201805461033690610c0f565b80601f016020809104026020016040519081016040528092919081815260200182805461036290610c0f565b80156103af5780601f10610384576101008083540402835291602001916103af565b820191906000526020600020905b81548152906001019060200180831161039257829003601f168201915b5050509183525050600382015460208201526004909101546001600160a01b0381166040830152600160a01b900460ff16151560609091015260a0810151909150801561040d57508480519060200120816020015180519060200120145b1561041e5760019350505050610438565b508061042981610c49565b915050610248565b5060009150505b92915050565b600380546000918291908261045283610c49565b909155506040805160c0810182528781526020808201888152828401889052426060840152336080840152600160a084018190526000868152600290935293909120825181559051939450909290918201906104ae9082610cbf565b50604082015160028201906104c39082610cbf565b506060820151600382015560808201516004909101805460a0909301511515600160a01b026001600160a81b03199093166001600160a01b0390921691909117919091179055600085815260016020818152604080842080549384018155845292200182905551819086907fef6c3cb1b10d9692ee09eeb6e2c11163eab3f68ef2fac8e63085ce7161dd79ca9061055b908890610d7f565b60405180910390a3949350505050565b60008181526001602090815260408083208054825181850281018501909352808352606094938301828280156105c057602002820191906000526020600020905b8154815260200190600101908083116105ac575b505050505090506000815167ffffffffffffffff8111156105e3576105e3610972565b60405190808252806020026020018201604052801561065857816020015b6106456040518060c001604052806000815260200160608152602001606081526020016000815260200160006001600160a01b031681526020016000151581525090565b8152602001906001900390816106015790505b50905060005b825181101561082e576002600084838151811061067d5761067d610bf9565b602002602001015181526020019081526020016000206040518060c0016040529081600082015481526020016001820180546106b890610c0f565b80601f01602080910402602001604051908101604052809291908181526020018280546106e490610c0f565b80156107315780601f1061070657610100808354040283529160200191610731565b820191906000526020600020905b81548152906001019060200180831161071457829003601f168201915b5050505050815260200160028201805461074a90610c0f565b80601f016020809104026020016040519081016040528092919081815260200182805461077690610c0f565b80156107c35780601f10610798576101008083540402835291602001916107c3565b820191906000526020600020905b8154815290600101906020018083116107a657829003601f168201915b5050509183525050600382015460208201526004909101546001600160a01b0381166040830152600160a01b900460ff161515606090910152825183908390811061081057610810610bf9565b6020026020010181905250808061082690610c49565b91505061065e565b509392505050565b61083e6108af565b6001600160a01b0381166108a35760405162461bcd60e51b815260206004820152602660248201527f4f776e61626c653a206e6577206f776e657220697320746865207a65726f206160448201526564647265737360d01b60648201526084016101b0565b6108ac81610909565b50565b6000546001600160a01b031633146101e95760405162461bcd60e51b815260206004820181905260248201527f4f776e61626c653a2063616c6c6572206973206e6f7420746865206f776e657260448201526064016101b0565b600080546001600160a01b038381166001600160a01b0319831681178455604051919092169283917f8be0079c531659141344cd1fd0a4f28419497f9722a3daafe3b4186f6b6457e09190a35050565b60006020828403121561096b57600080fd5b5035919050565b634e487b7160e01b600052604160045260246000fd5b600082601f83011261099957600080fd5b813567ffffffffffffffff808211156109b4576109b4610972565b604051601f8301601f19908116603f011681019082821181831017156109dc576109dc610972565b816040528381528660208588010111156109f557600080fd5b836020870160208301376000602085830101528094505050505092915050565b60008060408385031215610a2857600080fd5b82359150602083013567ffffffffffffffff811115610a4657600080fd5b610a5285828601610988565b9150509250929050565b600080600060608486031215610a7157600080fd5b83359250602084013567ffffffffffffffff80821115610a9057600080fd5b610a9c87838801610988565b93506040860135915080821115610ab257600080fd5b50610abf86828701610988565b9150509250925092565b6000815180845260005b81811015610aef57602081850181015186830182015201610ad3565b506000602082860101526020601f19601f83011685010191505092915050565b60006020808301818452808551808352604092508286019150828160051b87010184880160005b83811015610bbb57603f19898403018552815160c08151855288820151818a870152610b6482870182610ac9565b9150508782015185820389870152610b7c8282610ac9565b606084810151908801526080808501516001600160a01b03169088015260a0938401511515939096019290925250509386019390860190600101610b36565b509098975050505050505050565b600060208284031215610bdb57600080fd5b81356001600160a01b0381168114610bf257600080fd5b9392505050565b634e487b7160e01b600052603260045260246000fd5b600181811c90821680610c2357607f821691505b602082108103610c4357634e487b7160e01b600052602260045260246000fd5b50919050565b600060018201610c6957634e487b7160e01b600052601160045260246000fd5b5060010190565b601f821115610cba57600081815260208120601f850160051c81016020861015610c975750805b601f850160051c820191505b81811015610cb657828155600101610ca3565b5050505b505050565b815167ffffffffffffffff811115610cd957610cd9610972565b610ced81610ce78454610c0f565b84610c70565b602080601f831160018114610d225760008415610d0a5750858301515b600019600386901b1c1916600185901b178555610cb6565b600085815260208120601f198616915b82811015610d5157888601518255948401946001909101908401610d32565b5085821015610d6f5787850151600019600388901b60f8161c191681555b5050505050600190811b01905550565b602081526000610bf26020830184610ac956fea2646970667358221220a1128524b653268a143ce352783073e11216a5530e3bb61cc1e93f5068c0833164736f6c63430008110033",
  "linkReferences": {},
  "deployedLinkReferences": {}
}