{
  "_format": "hh-sol-artifact-1",
  "contractName": "VerificationToken",
  "sourceName": "contracts/VerificationToken.sol",
  "abi": [
    {
      "inputs": [
        {
          "internalType": "string",
          "name": "name",
          "type": "string"
        },
        {
          "internalType": "string",
          "name": "symbol",
          "type": "string"
        },
        {
          "internalType": "address",
          "name": "_credentialManager",
          "type": "address"
        }
      ],
      "stateMutability": "nonpayable",
      "type": "constructor"
    },
    {
      "anonymous": false,
      "inputs": [
        {
          "indexed": true,
          "internalType": "address",
          "name": "owner",
          "type": "address"
        },
        {
          "indexed": true,
          "internalType": "address",
          "name": "spender",
          "type": "address"
        },
        {
          "indexed": false,
          "internalType": "uint256",
          "name": "value",
          "type": "uint256"
        }
      ],
      "name": "Approval",
      "type": "event"
    },
    {
      "anonymous": false,
      "inputs": [
        {
          "indexed": true,
          "internalType": "address",
          "name": "previousOwner",
          "type": "address"
        },
        {
          "indexed": true,
          "internalType": "address",
          "name": "newOwner",
          "type": "address"
        }
      ],
      "name": "OwnershipTransferred",
      "type": "event"
    },
    {
      "anonymous": false,
      "inputs": [
        {
          "indexed": true,
          "internalType": "address",
          "name": "from",
          "type": "address"
        },
        {
          "indexed": true,
          "internalType": "address",
          "name": "to",
          "type": "address"
        },
        {
          "indexed": false,
          "internalType": "uint256",
          "name": "value",
          "type": "uint256"
        }
      ],
      "name": "Transfer",
      "type": "event"
    },
    {
      "inputs": [
        {
          "internalType": "address",
          "name": "owner",
          "type": "address"
        },
        {
          "internalType": "address",
          "name": "spender",
          "type": "address"
        }
      ],
      "name": "allowance",
      "outputs": [
        {
          "internalType": "uint256",
          "name": "",
          "type": "uint256"
        }
      ],
      "stateMutability": "view",
      "type": "function"
    },
    {
      "inputs": [
        {
          "internalType": "address",
          "name": "spender",
          "type": "address"
        },
        {
          "internalType": "uint256",
          "name": "amount",
          "type": "uint256"
        }
      ],
      "name": "approve",
      "outputs": [
        {
          "internalType": "bool",
          "name": "",
          "type": "bool"
        }
      ],
      "stateMutability": "nonpayable",
      "type": "function"
    },
    {
      "inputs": [
        {
          "internalType": "address",
          "name": "account",
          "type": "address"
        }
      ],
      "name": "balanceOf",
      "outputs": [
        {
          "internalType": "uint256",
          "name": "",
          "type": "uint256"
        }
      ],
      "stateMutability": "view",
      "type": "function"
    },
    {
      "inputs": [],
      "name": "credentialManager",
      "outputs": [
        {
          "internalType": "address",
          "name": "",
          "type": "address"
        }
      ],
      "stateMutability": "view",
      "type": "function"
    },
    {
      "inputs": [],
      "name": "decimals",
      "outputs": [
        {
          "internalType": "uint8",
          "name": "",
          "type": "uint8"
        }
      ],
      "stateMutability": "view",
      "type": "function"
    },
    {
      "inputs": [
        {
          "internalType": "address",
          "name": "spender",
          "type": "address"
        },
        {
          "internalType": "uint256",
          "name": "subtractedValue",
          "type": "uint256"
        }
      ],
      "name": "decreaseAllowance",
      "outputs": [
        {
          "internalType": "bool",
          "name": "",
          "type": "bool"
        }
      ],
      "stateMutability": "nonpayable",
      "type": "function"
    },
    {
      "inputs": [
        {
          "internalType": "string",
          "name": "credentialType",
          "type": "string"
        }
      ],
      "name": "getVerificationFee",
      "outputs": [
        {
          "internalType": "uint256",
          "name": "",
          "type": "uint256"
        }
      ],
      "stateMutability": "view",
      "type": "function"
    },
    {
      "inputs": [
        {
          "internalType": "address",
          "name": "spender",
          "type": "address"
        },
        {
          "internalType": "uint256",
          "name": "addedValue",
          "type": "uint256"
        }
      ],
      "name": "increaseAllowance",
      "outputs": [
        {
          "internalType": "bool",
          "name": "",
          "type": "bool"
        }
      ],
      "stateMutability": "nonpayable",
      "type": "function"
    },
    {
      "inputs": [],
      "name": "name",
      "outputs": [
        {
          "internalType": "string",
          "name": "",
          "type": "string"
        }
      ],
      "stateMutability": "view",
      "type": "function"
    },
    {
      "inputs": [],
      "name": "owner",
      "outputs": [
        {
          "internalType": "address",
          "name": "",
          "type": "address"
        }
      ],
      "stateMutability": "view",
      "type": "function"
    },
    {
      "inputs": [
        {
          "internalType": "uint256",
          "name": "passportId",
          "type": "uint256"
        },
        {
          "internalType": "string",
          "name": "credentialType",
          "type": "string"
        }
      ],
      "name": "payForVerification",
      "outputs": [
        {
          "internalType": "bool",
          "name": "",
          "type": "bool"
        }
      ],
      "stateMutability": "nonpayable",
      "type": "function"
    },
    {
      "inputs": [],
      "name": "renounceOwnership",
      "outputs": [],
      "stateMutability": "nonpayable",
      "type": "function"
    },
    {
      "inputs": [
        {
          "internalType": "address",
          "name": "_credentialManager",
          "type": "address"
        }
      ],
      "name": "setCredentialManager",
      "outputs": [],
      "stateMutability": "nonpayable",
      "type": "function"
    },
    {
      "inputs": [
        {
          "internalType": "string",
          "name": "credentialType",
          "type": "string"
        },
        {
          "internalType": "uint256",
          "name": "fee",
          "type": "uint256"
        }
      ],
      "name": "setVerificationFee",
      "outputs": [],
      "stateMutability": "nonpayable",
      "type": "function"
    },
    {
      "inputs": [],
      "name": "symbol",
      "outputs": [
        {
          "internalType": "string",
          "name": "",
          "type": "string"
        }
      ],
      "stateMutability": "view",
      "type": "function"
    },
    {
      "inputs": [],
      "name": "totalSupply",
      "outputs": [
        {
          "internalType": "uint256",
          "name": "",
          "type": "uint256"
        }
      ],
      "stateMutability": "view",
      "type": "function"
    },
    {
      "inputs": [
        {
          "internalType": "address",
          "name": "to",
          "type": "address"
        },
        {
          "internalType": "uint256",
          "name": "amount",
          "type": "uint256"
        }
      ],
      "name": "transfer",
      "outputs": [
        {
          "internalType": "bool",
          "name": "",
          "type": "bool"
        }
      ],
      "stateMutability": "nonpayable",
      "type": "function"
    },
    {
      "inputs": [
        {
          "internalType": "address",
          "name": "from",
          "type": "address"
        },
        {
          "internalType": "address",
          "name": "to",
          "type": "address"
        },
        {
          "internalType": "uint256",
          "name": "amount",
          "type": "uint256"
        }
      ],
      "name": "transferFrom",
      "outputs": [
        {
          "internalType": "bool",
          "name": "",
          "type": "bool"
        }
      ],
      "stateMutability": "nonpayable",
      "type": "function"
    },
    {
      "inputs": [
        {
          "internalType": "address",
          "name": "newOwner",
          "type": "address"
        }
      ],
      "name": "transferOwnership",
      "outputs": [],
      "stateMutability": "nonpayable",
      "type": "function"
    },
    {
      "inputs": [],
      "name": "withdrawFees",
      "outputs": [],
      "stateMutability": "nonpayable",
      "type": "function"
    }
  ],
  "bytecode": "0x60806040523480156200001157600080fd5b5060405162001370380380620013708339810160408190526200003491620002aa565b82826003620000448382620003c5565b506004620000538282620003c5565b505050620000706200006a620000c460201b60201c565b620000c8565b600780546001600160a01b0319166001600160a01b038316179055620000bb3362000099601290565b620000a690600a620005a6565b620000b590620f4240620005be565b6200011a565b505050620005ee565b3390565b600580546001600160a01b038381166001600160a01b0319831681179093556040519116919082907f8be0079c531659141344cd1fd0a4f28419497f9722a3daafe3b4186f6b6457e090600090a35050565b6001600160a01b038216620001755760405162461bcd60e51b815260206004820152601f60248201527f45524332303a206d696e7420746f20746865207a65726f206164647265737300604482015260640160405180910390fd5b8060026000828254620001899190620005d8565b90915550506001600160a01b038216600081815260208181526040808320805486019055518481527fddf252ad1be2c89b69c2b068fc378daa952ba7f163c4a11628f55a4df523b3ef910160405180910390a35050565b505050565b634e487b7160e01b600052604160045260246000fd5b600082601f8301126200020d57600080fd5b81516001600160401b03808211156200022a576200022a620001e5565b604051601f8301601f19908116603f01168101908282118183101715620002555762000255620001e5565b816040528381526020925086838588010111156200027257600080fd5b600091505b8382101562000296578582018301518183018401529082019062000277565b600093810190920192909252949350505050565b600080600060608486031215620002c057600080fd5b83516001600160401b0380821115620002d857600080fd5b620002e687838801620001fb565b94506020860151915080821115620002fd57600080fd5b506200030c86828701620001fb565b604086015190935090506001600160a01b03811681146200032c57600080fd5b809150509250925092565b600181811c908216806200034c57607f821691505b6020821081036200036d57634e487b7160e01b600052602260045260246000fd5b50919050565b601f821115620001e057600081815260208120601f850160051c810160208610156200039c5750805b601f850160051c820191505b81811015620003bd57828155600101620003a8565b505050505050565b81516001600160401b03811115620003e157620003e1620001e5565b620003f981620003f2845462000337565b8462000373565b602080601f831160018114620004315760008415620004185750858301515b600019600386901b1c1916600185901b178555620003bd565b600085815260208120601f198616915b82811015620004625788860151825594840194600190910190840162000441565b5085821015620004815787850151600019600388901b60f8161c191681555b5050505050600190811b01905550565b634e487b7160e01b600052601160045260246000fd5b600181815b80851115620004e8578160001904821115620004cc57620004cc62000491565b80851615620004da57918102915b93841c9390800290620004ac565b509250929050565b6000826200050157506001620005a0565b816200051057506000620005a0565b8160018114620005295760028114620005345762000554565b6001915050620005a0565b60ff84111562000548576200054862000491565b50506001821b620005a0565b5060208310610133831016604e8410600b841016171562000579575081810a620005a0565b620005858383620004a7565b80600019048211156200059c576200059c62000491565b0290505b92915050565b6000620005b760ff841683620004f0565b9392505050565b8082028115828204841417620005a057620005a062000491565b80820180821115620005a057620005a062000491565b610d7280620005fe6000396000f3fe608060405234801561001057600080fd5b506004361061012c5760003560e01c806370a08231116100ad578063a457c2d711610071578063a457c2d71461026d578063a9059cbb14610280578063dd62ed3e14610293578063e71de048146102a6578063f2fde38b146102b957600080fd5b806370a0823114610210578063715018a614610239578063775b068b146102415780638da5cb5b1461025457806395d89b411461026557600080fd5b806323b872dd116100f457806323b872dd146101a85780632b0c1a1e146101bb578063313ce567146101e657806339509351146101f5578063476343ee1461020857600080fd5b8063017322541461013157806306fdde0314610159578063095ea7b31461016e57806318160ddd1461018157806321e6652c14610193575b600080fd5b61014461013f366004610ace565b6102cc565b60405190151581526020015b60405180910390f35b61016161035c565b6040516101509190610b39565b61014461017c366004610b88565b6103ee565b6002545b604051908152602001610150565b6101a66101a1366004610bb2565b6103fc565b005b6101446101b6366004610bd4565b610426565b6007546101ce906001600160a01b031681565b6040516001600160a01b039091168152602001610150565b60405160128152602001610150565b610144610203366004610b88565b61044a565b6101a661046c565b61018561021e366004610bb2565b6001600160a01b031660009081526020819052604090205490565b6101a661049f565b6101a661024f366004610c10565b6104b3565b6005546001600160a01b03166101ce565b6101616104e0565b61014461027b366004610b88565b6104ef565b61014461028e366004610b88565b61056a565b6101856102a1366004610c55565b610578565b6101856102b4366004610c88565b6105a3565b6101a66102c7366004610bb2565b6105cb565b6000806006836040516102df9190610cc5565b9081526020016040518091039020549050600081116103455760405162461bcd60e51b815260206004820152601860248201527f566572696669636174696f6e20666565206e6f7420736574000000000000000060448201526064015b60405180910390fd5b610350333083610641565b60019150505b92915050565b60606003805461036b90610ce1565b80601f016020809104026020016040519081016040528092919081815260200182805461039790610ce1565b80156103e45780601f106103b9576101008083540402835291602001916103e4565b820191906000526020600020905b8154815290600101906020018083116103c757829003601f168201915b5050505050905090565b6000336103508185856107e7565b61040461090b565b600780546001600160a01b0319166001600160a01b0392909216919091179055565b600033610434858285610965565b61043f858585610641565b506001949350505050565b60003361035081858561045d8383610578565b6104679190610d1b565b6107e7565b61047461090b565b30600081815260208190526040902054600554909161049c916001600160a01b031683610641565b50565b6104a761090b565b6104b160006109d9565b565b6104bb61090b565b806006836040516104cc9190610cc5565b908152604051908190036020019020555050565b60606004805461036b90610ce1565b600033816104fd8286610578565b90508381101561055d5760405162461bcd60e51b815260206004820152602560248201527f45524332303a2064656372656173656420616c6c6f77616e63652062656c6f77604482015264207a65726f60d81b606482015260840161033c565b61043f82868684036107e7565b600033610350818585610641565b6001600160a01b03918216600090815260016020908152604080832093909416825291909152205490565b60006006826040516105b59190610cc5565b9081526020016040518091039020549050919050565b6105d361090b565b6001600160a01b0381166106385760405162461bcd60e51b815260206004820152602660248201527f4f776e61626c653a206e6577206f776e657220697320746865207a65726f206160448201526564647265737360d01b606482015260840161033c565b61049c816109d9565b6001600160a01b0383166106a55760405162461bcd60e51b815260206004820152602560248201527f45524332303a207472616e736665722066726f6d20746865207a65726f206164604482015264647265737360d81b606482015260840161033c565b6001600160a01b0382166107075760405162461bcd60e51b815260206004820152602360248201527f45524332303a207472616e7366657220746f20746865207a65726f206164647260448201526265737360e81b606482015260840161033c565b6001600160a01b0383166000908152602081905260409020548181101561077f5760405162461bcd60e51b815260206004820152602660248201527f45524332303a207472616e7366657220616d6f756e7420657863656564732062604482015265616c616e636560d01b606482015260840161033c565b6001600160a01b03848116600081815260208181526040808320878703905593871680835291849020805487019055925185815290927fddf252ad1be2c89b69c2b068fc378daa952ba7f163c4a11628f55a4df523b3ef910160405180910390a35b50505050565b6001600160a01b0383166108495760405162461bcd60e51b8152602060048201526024808201527f45524332303a20617070726f76652066726f6d20746865207a65726f206164646044820152637265737360e01b606482015260840161033c565b6001600160a01b0382166108aa5760405162461bcd60e51b815260206004820152602260248201527f45524332303a20617070726f766520746f20746865207a65726f206164647265604482015261737360f01b606482015260840161033c565b6001600160a01b0383811660008181526001602090815260408083209487168084529482529182902085905590518481527f8c5be1e5ebec7d5bd14f71427d1e84f3dd0314c0f7b2291e5b200ac8c7c3b925910160405180910390a3505050565b6005546001600160a01b031633146104b15760405162461bcd60e51b815260206004820181905260248201527f4f776e61626c653a2063616c6c6572206973206e6f7420746865206f776e6572604482015260640161033c565b60006109718484610578565b905060001981146107e157818110156109cc5760405162461bcd60e51b815260206004820152601d60248201527f45524332303a20696e73756666696369656e7420616c6c6f77616e6365000000604482015260640161033c565b6107e184848484036107e7565b600580546001600160a01b038381166001600160a01b0319831681179093556040519116919082907f8be0079c531659141344cd1fd0a4f28419497f9722a3daafe3b4186f6b6457e090600090a35050565b634e487b7160e01b600052604160045260246000fd5b600082601f830112610a5257600080fd5b813567ffffffffffffffff80821115610a6d57610a6d610a2b565b604051601f8301601f19908116603f01168101908282118183101715610a9557610a95610a2b565b81604052838152866020858801011115610aae57600080fd5b836020870160208301376000602085830101528094505050505092915050565b60008060408385031215610ae157600080fd5b82359150602083013567ffffffffffffffff811115610aff57600080fd5b610b0b85828601610a41565b9150509250929050565b60005b83811015610b30578181015183820152602001610b18565b50506000910152565b6020815260008251806020840152610b58816040850160208701610b15565b601f01601f19169190910160400192915050565b80356001600160a01b0381168114610b8357600080fd5b919050565b60008060408385031215610b9b57600080fd5b610ba483610b6c565b946020939093013593505050565b600060208284031215610bc457600080fd5b610bcd82610b6c565b9392505050565b600080600060608486031215610be957600080fd5b610bf284610b6c565b9250610c0060208501610b6c565b9150604084013590509250925092565b60008060408385031215610c2357600080fd5b823567ffffffffffffffff811115610c3a57600080fd5b610c4685828601610a41565b95602094909401359450505050565b60008060408385031215610c6857600080fd5b610c7183610b6c565b9150610c7f60208401610b6c565b90509250929050565b600060208284031215610c9a57600080fd5b813567ffffffffffffffff811115610cb157600080fd5b610cbd84828501610a41565b949350505050565b60008251610cd7818460208701610b15565b9190910192915050565b600181811c90821680610cf557607f821691505b602082108103610d1557634e487b7160e01b600052602260045260246000fd5b50919050565b8082018082111561035657634e487b7160e01b600052601160045260246000fdfea26469706673582212203295cbb0099d18084ea96a3f682e238bc671adde9cdc460ff956918e81dfd53564736f6c63430008110033",
  "linkReferences": {},
  "deployedLinkReferences": {}
}